:0408000060EF57F05E
:08080800046ED8CF05F0E0CF2B
:1008100006F00001E9CF0CF0EACF07F0E1CF08F0D5
:10082000E2CF09F0D9CF0AF0DACF0BF0F3CF12F014
:10083000F4CF13F0FACF14F0F5CF15F0F6CF16F091
:10084000F7CF17F000C00EF001C00FF002C010F09B
:1008500003C011F00E01C2AB31EF04F0CABB86EF4A
:100860000BF0C5AB37EF04F0CDBBF2EF04F0C5AF32
:100870003DEF04F0CDBF55EF09F0C6A143EF04F002
:10088000CEB119EF05F0C6A549EF04F0CEB57CEF67
:1008900009F00EC000F00FC001F010C002F011C04E
:1008A00003F00CC0E9FF07C0EAFF078E08C0E1FFB4
:1008B00009C0E2FF0AC0D9FF0BC0DAFF12C0F3FF84
:1008C00013C0F4FF14C0FAFF15C0F5FF16C0F6FF01
:1008D00017C0F7FF045006C0E0FF05C0D8FF1000A6
:1008E000F76AF00FF66E080EF7220900F5501200B5
:1008F000280C0106F76A040FF66E090EF7220900AC
:10090000F55012001F110E0404040404000000003E
:1009100000001F1F000000001F1F1F1F00001F1FDF
:100920001F1F1F1F1F1F1F1F1F1F1F1F0E1B111FFA
:100930001F1F1F1F0E1F1F1F1F1F1F1F0000001F35
:1009400010171415F76A540FF66E090EF7220900F6
:10095000F5501200534D5300F76A680FF66E090EFA
:10096000F7220900F550120041707000F76A7C0F01
:10097000F66E090EF7220900F550120041505000A2
:10098000F76A900FF66E090EF7220900F550120073
:100990007820202000002D2D2D0000002D2D2D0071
:1009A000000049503A2000000D0A55524C204C4599
:1009B0004944413A257300000D0A52555441204CD8
:1009C000454944413A2573000E01CDABFED79DCF7A
:1009D00019F099CF01F019A202D09D989D880001CD
:1009E00001EF05F00001036A0501E751BC0FE96E54
:1009F000010E0320EA6EEACFECF8E9CFEBF8000134
:100A0000E3D7ECC8EAFFEBC8E9FF01C0EFFFCE6A0D
:100A1000CD6ACF800501E72BE751FD0805E2E76BC2
:100A200006019089CF9005010E01CD9B000149EF91
:100A300004F00001CF90036A0501E751BC0FE96E95
:100A4000010E0320EA6EEF6AE76B06019089CE6A19
:100A5000CD6A0E01CE91000149EF04F06164696E28
:100A6000733A256C75200D0A000009456E766961A0
:100A70006E646F204D656E73616A65204E756D659D
:100A8000726F3A256C7520616C206E756D65726FA2
:100A900025730D0A000041542B434D47533D222539
:100AA00073220D00414354495641444120504F5256
:100AB0002041504C49434143494F4E256300414C2E
:100AC000524D3A25732D25732D4D534A3A257325E2
:100AD00063000D0A534D5320454E564941444F0D76
:100AE0000A004D55592042414A41000042414A41C5
:100AF00000004E4F524D414C0000455843454C4577
:100B00004E5445004552524F52004E4F52454700F9
:100B10005245474953545241444F210D0A00425512
:100B20005343414E444F00004E4F205245474953D6
:100B3000545241444F0D0A00454E5649414E444FD0
:100B4000204B45455020414C4956450D0A004C412B
:100B50002053494D204553544120494E534552544A
:100B60004144410D0A004D454E53414A45205245EE
:100B700043494249444F0D0A00004D454E53414AF6
:100B80004520444520544558544F000044453A0000
:100B9000456C206E7565766F20636F6E74656E6947
:100BA000646F5F736D732065733A2025730A0000CC
:100BB0004D454E53414A4520444520544558544FD5
:100BC0000000785F736D735F7525736E3A2573004F
:100BD000785F6170705F2573000047413A002050D4
:100BE000693A0000205063323A0047443A002050EE
:100BF000693A0000205063333A0047543A002050CD
:100C0000693A0000524543494249444F204E5545F8
:100C1000564F00005553554152494F2E2049443AF2
:100C2000256C7500475541524441444F205553555A
:100C30004152494F3A200000524543494249444FEE
:100C4000204E5545564F000041444D494E2E2049F7
:100C5000443A256C7500475541524441444F204168
:100C6000444D494E3A256C75000041444D494E2E85
:100C70002049443A256C750041444D494E20494471
:100C80003A256C7500005553554152494F3A256C31
:100C90007500475541524441444F2041444D494E0F
:100CA0003A256C75000041444D494E2E2049443A86
:100CB000256C7500424F525241444F2041444D250E
:100CC0006C7500004C4545522041444D494E533F00
:100CD00020257500424F544F4E2050415241204331
:100CE0004F4E542E000041444D494E2049443A2570
:100CF0006C7500004C4953544F212100424F525211
:100D0000414E444F20544F444F5320004C4F5320EA
:100D10005553554152494F532E2E2E200000424F1D
:100D2000525241444F20484153544120454C000009
:100D30004E554D45524F3A256C75202000004755C1
:100D4000415244414E444F204E5545564F00494470
:100D50002044452043454E5452414C2E2E2E200017
:100D60004E5545564F2049442043454E5452414C20
:100D70003A004755415244414E444F204E55455646
:100D80004F005449454D504F20444520534952454A
:100D90004E4100004E5545564F205449454D504F49
:100DA000204445200000534952454E413A25757371
:100DB0006567000041504E2053454C454343494F21
:100DC0004E4144410000434C41524F004D4F564963
:100DD000535441520000504552534F4E414C000075
:100DE000434C41524F004D4F56495354415200001D
:100DF000504552534F4E414C000053494E20434101
:100E00004D42494F53005245494E494349414E4492
:100E10004F2050415241000041504C494341522023
:100E200043414D42494F530055524C205245504F7B
:100E30005254453A00000D0A55524C205245434940
:100E4000424944413A2573002020204552524F52D6
:100E500020444520000053494E54415849532044F2
:100E6000452055524C00414354495641444F204B74
:100E70004545502D0000414C49564520504F5220C9
:100E8000574542212100444553414354495641446A
:100E90004F204B4545500000414C49564520504F8E
:100EA00052205745422121200000414C41524D41E2
:100EB000205449504F00434F4D554E4954415249DB
:100EC0004100414C41524D41205449504F00484F40
:100ED0004741520050554C534520454C20434F4EFE
:100EE00054524F4C000050415241205553554152ED
:100EF000494F2530337500004E5545564F20434F1E
:100F00004E54524F4C0041534F434941444F20559A
:100F100053253033750050554C534520454C2043E4
:100F20004F4E54524F4C00002044452041435449F9
:100F3000564143494F4E00004E5545564F20434FB2
:100F40004E54524F4C002041534F434941444F218E
:100F5000210050554C534520454C20434F4E545290
:100F60004F4C0000414354204D554C5449424F547E
:100F70004F4E20004E5545564F20434F4E54524F32
:100F80004C204D4200002041534F434941444F21E2
:100F90002100414343494F4E4520454C2053454E87
:100FA000534F5200515545205345524120454C2046
:100FB0002530327500004E5545564F2053454E534F
:100FC0004F52000041534F434941444F2025303296
:100FD000750020202020414C41524D4120202020EE
:100FE00000002020202041524D414441212020205A
:100FF00020002020202020414C41524D4120202023
:10100000202000002020202044455341524D4144DF
:101010004120202000002020202053454E534F52D5
:10102000455320202020000020202020424F5252F3
:1010300041444F5320202000202020434F4E545243
:101040004F4C4553202020200000202020424F52AA
:101050005241444F532120200000434F4E54524FE1
:101060004C4553204445204143540000424F5252C6
:1010700041444F532100496D706F7274616E636912
:1010800061446553696D000020202020416374692C
:1010900076616461212020200000496D706F7274B8
:1010A000616E636961446553696D00002020446589
:1010B00073616374697661646121202000002020DF
:1010C0005265696E696369616E646F20202000005B
:1010D0002020202043656E7472616C202020202027
:1010E0000000554C54494D4120004143544956415C
:1010F00043494F4E3A0041542B434D47533D22251F
:1011000073220D0041542B434D47533D222573223A
:101110000D002573257320533A257320453A257316
:1011200020543A257325630041002573257320530D
:101130003A257320453A257320543A2573256300D8
:1011400044000D0A534D5320454E564941444F0D1E
:101150000A0047455420257369643D25732573268D
:1011600073656E616C3D25642662617465726961A8
:101170003D25662661726D6164613D257326756C3F
:10118000746163743D257320485454502F312E31BF
:101190000D0A486F73743A25730D0A0D0A0000009A
:1011A00041542B43495053454E443D256C750D0029
:1011B000496E696369616C697A616E646F0041545C
:1011C0002B4950523D393630300D000041542B49E7
:1011D00050523D393630300D00004F4E204D4F44B7
:1011E000454D0000415445310D004543484F204DC9
:1011F0004F44454D000041542B434C49503D310D67
:10120000000043414C4C204944204F4E00004154C3
:101210002B434D47463D310D0000534D53204F4E5B
:10122000000041542B43534D503D31372C3136375C
:101230002C322C32350D0000534D5320464F524D69
:101240004154204F4B0041542B435343533D2247BD
:10125000534D220D0000534D5320494E2047534D0E
:10126000204C414E470041542B434E4D493D322CBA
:10127000322C302C302C300D0000534D5320524571
:101280004144590041542B4350494E3F0D000E013B
:10129000CDAFFED79DCE19F099CE01F019A202D0A4
:1012A0009D999D89000164EF09F00001036A050121
:1012B000E851BA0FE96E020E0320EA6EEACFECF8AD
:1012C000E9CFEBF80001E3D7ECC8EAFFEBC8E9FF90
:1012D00001C0EFFFC86AC76AC9800501E82BE85161
:1012E0003B0805E2E86B0601908BC99005010E01F1
:1012F000CD9F000149EF04F00001C990036A050188
:10130000E851BA0FE96E020E0320EA6EEF6AE86B4D
:101310000601908BC86AC76A0E01CE95000149EF9D
:1013200004F0776966695F6F6E2072656369626950
:10133000646F206520696E74657270726574616493
:101340006F0A000073656E69616C5F77696669207A
:101350007265636962696461206520696E74657293
:10136000707265746164610A00005365C3B1616C99
:101370002072656369626964613A2025690A000028
:101380004E6F207365207265636F6E6F6369C3B3C0
:101390002073656E69616C5F7769666900004365FB
:1013A0006E7472616C3A256C7500436F6E74726F67
:1013B0006C3A256C7500785F636F6E5F752530320F
:1013C0006C750000434F4E005553554152494F3AFA
:1013D000256C75204E4F2045584953544520454EA5
:1013E000204D454D4F5249410000785F636F6E5F5D
:1013F000752530326C750000434F4E0053656E7397
:101400006F722575000053454E257500414C4152C1
:101410004D4120414354495641444100504F5220D0
:1014200053454E534F522575000020202020204167
:101430004C41524D4120202020200000202020201F
:101440002041524D414441202020202000002020F6
:10145000202044455341524D41444120202000006A
:101460002020202020414C41524D4120202020208E
:101470000000202020202041524D414441202020C6
:10148000202000002020202020414C41524D4120AE
:101490002020202000002020202044455341524D90
:1014A000414441202020000050616E69636F0000BC
:1014B00050434F4E0000414C41524D412041435456
:1014C000495641444100424F544F4E2050414E49ED
:1014D000434F00004F4B0D0A00004C4559454E4408
:1014E0004F205553554152494F532C484153544175
:1014F00020454C204E554D45524F256C750D0A0028
:1015000049443A256C7525732C25732C25730D0AD7
:1015100000004F4B0D0A00004F4B0D0A0000424FD8
:101520005252414E444F205553554152494F532C2E
:1015300045535045524520504F52204641564F5238
:101540002E0D0A00424F525241444F20544F444FF7
:1015500053204C4F53205553554152494F5320432C
:1015600041524741444F532C484153544120454C2C
:10157000204E554D45524F3A256C75200D0A0000FE
:1015800054454C45464F4E4F2044452041444D491B
:101590004E256C753A25730D0A00424F5252414454
:1015A0004F2049443A256C753A200D0A00004B45FE
:1015B000455020414C495645204F46460D004B456D
:1015C000455020414C495645204F4E0D00004D6F6F
:1015D000646F207465726D696E616C2064697265F8
:1015E00063746F20686163696120656C204D4F44AE
:1015F000454D0D0A456E766961722053414C495242
:10160000206F204558495420706172612073616CCD
:1016100069720D0A000053616C69656E646F206425
:10162000656C207465726D696E616C2E2E2E0000E3
:10163000456E7669616E646F204B65657020416C04
:10164000697665210000456C207265706F72746563
:10165000206175746F6D617469636F206573746167
:1016600020646573616374697661646F210041630E
:1016700074697661726C6F20706F7220736D732065
:10168000636F6E2023787858585858205257454237
:10169000204F4E0D0A006F20706F722065737461C9
:1016A000207465726D696E616C20636F6E3A2052B2
:1016B000574542204F4E0D0A000050726F6365730C
:1016C000616E646F20436F6D616E646F3A202573A5
:1016D0000D0A00000D0A2B434D543A2022303236B9
:1016E0003141444D494E2D222C22222C2230322FC2
:1016F00030332F39322C31323A30303A30302D30CD
:1017000030220D0A2325732573257300000105017E
:10171000E22BD8B4E32BE351A70817E2FF0A03E159
:10172000E251BF0812E2060191AF02D094B104D099
:1017300091BF07D094B105D0450E956F520E966FAC
:10174000976F89928492FF000501060190A141D014
:101750000501E66B889483848A90857088928372F1
:10176000DE2BD8B4DF2BDF5303E1D351DE5D10E372
:10177000DF6BDE6B060190918A908590889483944C
:1017800088928392909590970E019951C58F05018B
:101790008C8091B01BD0E02BD8B4E12BE051030832
:1017A00014E1E15312E1060190910501E16BE06B58
:1017B0008A9085908894839488928392060190956C
:1017C00090970E019951C58F050102D0E16BE06B36
:1017D00006010501E62BE42BD8B4E52BE4512C08D7
:1017E0000AE1E52D08D0C80EE66FD22D03D0060120
:1017F000918705010ED0E55100080BE2FF0A03E1D5
:10180000E451670806E2E66B060191810501E56B8C
:10181000E46BE651050803E1060191830501E651F9
:101820000A0804E1E66B060191850501D5A802D0FE
:101830000B0ED46EDC0ED36E0E01CA9B000149EF75
:1018400004F043656E7472616C2023257325730068
:101850004D3A34360000496E69740D0041540D0054
:1018600053454C46544553540D00242C434F4E547D
:101870002C535441542C0D004E4F20415558207587
:10188000500053494D204E4F20494E53455254412C
:10189000444100002D2D30303030000041524D4188
:1018A0004441000044455341524D414441002065AC
:1018B00030310000206530320000206530330000F8
:1018C000206530340000414354495641444F20784C
:1018D00020534D532E00414354495641444F2078E4
:1018E000204150502E0041542B43495053485554E9
:1018F0000D0041542B4353510D0041542B4352458D
:10190000473F0D0041542B43495053544152543DDD
:1019100022544350222C222573222C38300D0000F3
:10192000080EEA6ED00EE96EEF500DE00A0E016E61
:10193000006A002EFED7012EFBD75F0E006E002E30
:10194000FED7EF2EF3D71200080161B102D08692C4
:1019500001D086828B9261B302D0869001D08680BE
:101960008B9061B502D0859601D085868A9661B745
:1019700002D0859401D085848A9400008B9486845B
:10198000050E006E002EFED78B9486940001120087
:101990008B9686969F0E006E002EFED700D0080113
:1019A0005E5303E08B96868602D08B968696000067
:1019B0008B9486945F39606F0F0E601760C861F872
:1019C0000001C2DF08015F510F0B606F616F000102
:1019D000BBDF1200010E206E8B9686968B94869448
:1019E000230E0801D06F00019BDF0601E66BE65174
:1019F00002080DE3030E0801616F0001A5DF050E6B
:101A00000801D06F00018CDF0601E62BF0D7020E33
:101A10000801616F000198DF0601E66BE6510308DB
:101A200014E3036AE651000170EC04F00601E76F6D
:101A300008015E6B5F6F0001ABDF050E0801D06F20
:101A400000016EDF0601E62BE9D7000180EF58F0B8
:101A500008015E6B400E5F6F00019ADF0601E66BC6
:101A6000E6513F0811E3036AE65100017AEC04F005
:101A70000601E76F010E08015E6FE7C65FF800011F
:101A800087DF0601E62BECD708015E6B800E5F6FE7
:101A900000017EDF82EF58F008015E6B010E5F6F80
:101AA000000176DF010E206E020E0801D06F0001EA
:101AB00037DF12008A8A8A88BDEF58F0F2CFE6F647
:101AC000F29E7F6A0F0E7E6E819C819E8180805087
:101AD000819C818E0601E6BFF28E016E949101B069
:101AE0009481F2CFE6F6F29E7F6A100E7E6E819CA4
:101AF000819E81808050819C818EE6BFF28E016E36
:101B0000919F01B0918F000E94B1010E010805E381
:101B1000000E91BF010E010802E2918F9491000125
:101B2000BFEF58F0000E060194B1010E0801346FAA
:101B3000F250006EF29E7F6A0F0E7E6E34C880FFF8
:101B4000819C819E81840F01550E826EAA0E826E49
:101B5000818281B2FED78194819C818E0050F212E5
:101B6000000E060191BF010E0801346FF250006EA5
:101B7000F29E7F6A100E7E6E34C880FF819C819E2B
:101B800081840F01550E826EAA0E826E818281B20F
:101B9000FED78194819C818E0050F21200011200C8
:101BA000969E0E01CD914AC892FF020E96BE05D0B8
:101BB000CDA1FED7000E97BC010E016E00011200F0
:101BC000978097B0FED7A00E08014A6F0001E8DFAA
:101BD00041C844F80801456B41C84AF80001E0DFFC
:101BE00040C84AF8DDDF42C84AF8DADF978497B484
:101BF000FED7978097B0FED7A00E08014A6F00016C
:101C0000CFDF01500801439101B0438143A10DD0C2
:101C1000978297B2FED7A00E4A6F0001C1DF015034
:101C20000801439101B04381F1D7978497B4FED75F
:101C3000000112000801346B356B356B355101081A
:101C40001BE3036A3551210FE96E000E0320EA6E93
:101C500035513425386FF2CF39F8F29E7F6A38C893
:101C60007EFF819C819E81808050819C818E39BFC6
:101C7000F28EEF6E352BE2D7020E346F036A3451C9
:101C8000210FE96E000E0320EA6EEF6A356B3551C5
:101C900003081BE3036A3551240FE96E000E03208D
:101CA000EA6E35513425386FF2CF39F8F29E7F6AEB
:101CB00038C87EFF819C819E81808050819C818E6E
:101CC00039BFF28EEF6E352BE2D7040E346F036A04
:101CD0003451240FE96E000E0320EA6EEF6A2150A2
:101CE000400803E221505A0806E2215060080FE242
:101CF00021507A080CE32250400803E222505A088F
:101D000028E22250600803E222507A0822E224509E
:101D10002F0815E22450390812E325502F080FE24E
:101D2000255039080CE326502F0809E226503908BF
:101D300006E327502F0803E2275039080AE22D0E48
:101D4000216E226E236A300E246E256E266E276E5B
:101D5000286A000112008E0E006ED2C801F0D1C8B0
:101D600002F0036A015209E102C001F0026A080EA2
:101D7000005E015202E1006A08D0D89001BE04D092
:101D8000023601360006F9D7019E02EF10F0080175
:101D9000DC51D8B471D0006EE051D8B46DD00026BB
:101DA00004E3810E002668E204D07F0E005E64E347
:101DB00063E0DDC8E4F8E151E41BDD8FE18FDF5122
:101DC000E303F4CFE6F8DE51E203F4CF03F0F3CF00
:101DD000E5F8E303F350E627F450E523000E032271
:101DE000DF51E203F350E627F450E523000E026AC8
:101DF00003220222DD51E303F350E527F4500322CE
:101E0000000E0222DD51E203F3500326F4500222B9
:101E1000000E016A0122DF51E103F350E527F4507F
:101E20000322000E02220122DE51E103F3500326B9
:101E3000F4500222000E0122DD51E103F35002268C
:101E4000F4500122002A01BE05D0E53703360236E0
:101E500001360006000EE5AF0AD0032A0222012255
:101E6000015005E1025003E1035001E1002AE4BF03
:101E7000018EE4AF019E04D0006A016A026A036A1F
:101E8000000112000801D351D8B4A5D0DF6FD7519B
:101E9000D8B4A1D0DF5F05E37F0EDF27D8B09BD099
:101EA00006D0810EDF5FD8A096D0D8B494D0DFC81A
:101EB00000F0016A026A036ADE6BD4C8DDF8DD8FC8
:101EC000D5C8DCF8D6C8DBF8190EDF6FDA51DB5F56
:101ED0000DE2010EDC5F0AE2DD5F08E2DE5F06E292
:101EE000DE2BDD2BDC2BDA51DB2728D0D951DC5F50
:101EF00012E2010EDD5F0FE2DE5F0DE2DE2BDD2B75
:101F0000D951DC27DA51DB2719E3DC2B17E1DD2B74
:101F100015E1DE2B13D0D8518009DD5F0EE2010EF2
:101F2000DE5F0BE2DE2BD8518009DD27D951DC279B
:101F3000E9E3DD2BE7E1DE2BE5D70380DF2F01D0DE
:101F40000BD0D890DB37DC37DD37DE37D89003365F
:101F500002360136E037BAD7E0A106D0D890013278
:101F600002320332E03302D0000635E0E0BF1ED07B
:101F7000D890DB37DC37DD37DE37DA51DB5F07E25D
:101F8000010EDC5F04E2DD5F02E2DE5F1AE3D9519D
:101F9000DC5F05E2010EDD5F02E2DE5F12E3D85195
:101FA0008009DD5F03E2010EDE5F0BE3032A09E136
:101FB000022A07E1012A05E1002A0DE0013202327E
:101FC0000332D4C8DFF8D851DF1BDFAF02D0018E57
:101FD00006D0019E04D0006A016A026A036A000109
:101FE00012006080000060B0FED764CF02F063CFC3
:101FF00001F064CFD0F863CFCFF864CFD2F863CFCD
:10200000D1F8A9D603C0DFF802C0DEF801C0DDF8C0
:1020100000C0DCF80A0E0801E36FD70EE26F5D0E18
:10202000E16F830EE06F0001B2DE03C0D2F802C0A0
:10203000D1F801C0D0F800C0CFF803C0D6F802C074
:10204000D5F801C0D4F800C0D3F80801DA6BC00E8F
:10205000D96F7F0ED86F880ED76F000113DF03C0D2
:10206000EEF502C0EDF501C0ECF500C0EBF5120095
:1020700008015B51010A000107E0030A08E0010AB8
:102080000AE0070A0CE010D008015C6B0FD0400E8C
:1020900008015C6F0BD0140E08015C6F07D0540E62
:1020A00008015C6F03D0000108015C6B010E5A5DF2
:1020B0005C275C5180095D6F5E6B5F6F000168DCBF
:1020C0001200080159510C0A000105E0060A11E04E
:1020D000020A18E01ED008015E6B010E5F6F00015E
:1020E00057DC010E206E020E0801D06F000118DCD3
:1020F00017D0202A010E08015A6F20C05BF800019A
:10210000B7DF0ED008015E6B100E5F6F000140DC80
:1021100007D0010E08015E6F59C85FF8000138DC76
:1021200012000900F6CF35F8F7CF36F8F5CF59F899
:10213000C8DF35C8F6FF36C8F7FF0801342F01D0D5
:1021400002D00001EED700011200EF520FE0EACFFB
:1021500058F8E9CF57F8EFCF59F8B3DF58C8EAFF7E
:1021600057C8E9FFE92AD8B4EA2AEFD712000801D4
:10217000DC51B608DC6F036ADDC8E0F8DD8FD8906B
:10218000DD33DE33DF330332023201320032DC2F43
:10219000F6D7E0AF0BD0001E011E021E031E002A60
:1021A000D8B4012AD8B4022AD8B4032A00011200F4
:1021B000D8B204D0080EEA6EE40EE96E006A016A35
:1021C000026A036A0801E46BE56BE66BE76BE351B7
:1021D000E211E111E0112CE0200EE86FD890DC371D
:1021E000DD37DE37DF37E437E537E637E737E3510A
:1021F000E75D08E1E251E65D05E1E151E55D02E1FF
:10220000E051E45D0FE3E051E45FE151D8A0E13D2E
:10221000E55FE251D8A0E23DE65FE351D8A0E33D9F
:10222000E75FD8800036013602360336E82FD6D76E
:10223000E4C8EFFFE5C8ECFFE6C8ECFFE7C8ECFF39
:1022400000011200E9500601EB6FEA51ED6F1CE04E
:10225000E9C6DFF8E8C6DEF8E7C6DDF8E6C6DCF872
:102260000801E36BE26B200EE16F820EE06F00016C
:102270008EDD03C0E9F602C0E8F601C0E7F600C053
:10228000E6F60601ED2FE4D7E9C6DFF8E8C6DEF88A
:10229000E7C6DDF8E6C6DCF8000169DF03C0E9F651
:1022A00002C0E8F601C0E7F600C0E6F60601E9AFB5
:1022B0000DD0EB07EB8BE61FE71FE81FE91FE62BAE
:1022C000D8B4E72BD8B4E82BD8B4E92B3B0EF26F87
:1022D0009A0EF16FCA0EF06FEF6B0A0EED6FEA51B6
:1022E000D8B4EB2BD882060EEA6EE60EE96EE9C68C
:1022F000DFF8E8C6DEF8E7C6DDF8E6C6DCF8F2C6C9
:10230000E3F8F1C6E2F8F0C6E1F8EFC6E0F8000144
:102310004FDF0150005213E10601EA29ED5DD8A418
:1023200002D000010CD0EB510DE00F0BED5D01E090
:1023300043E2EBBF41D0EBBD05D0200E37D0200EDD
:102340000601EB17EBAB0FD0EB9BEA51D8A4EB07E0
:102350000050EB6F2D0E0801596F0001B2DE06012F
:10236000EB51006EEB6BEA51ED5D0DE10050EB6F50
:102370002E0E0801596F0001A4DE0601EB51006E1C
:10238000200EEB17000E300EEBAB10D0EB9BEA519A
:10239000D8A4EB070050EB6F2D0E0801596F000118
:1023A00090DE0601EB51006EEB6B300E002600C094
:1023B00059F8000186DE0601D892F2C6DFF8F1C6B0
:1023C000DEF8F0C6DDF8EFC6DCF80801E36BE26B7F
:1023D000E16B0A0EE06F0001EBDE03C0F2F602C013
:1023E000F1F601C0F0F600C0EFF60601ED2F7AD746
:1023F000000112000900F5520CE0F6CF57F8F7CFB4
:1024000058F8F5CF59F85DDE57C8F6FF58C8F7FF02
:10241000F1D71200F2CF34F8F29E7F6A280E7E6E5A
:10242000819C819E81808050819C818E080134BF77
:10243000F28E0501D26FD251010801E2D26B000188
:102440001200F2CFE6F6F29E7F6A1E0E7E6E819C2F
:10245000819E81808050819C818E0601E6BFF28E34
:102460000501D46FD45303E0D451030802E2010EF6
:10247000D46F00014BEF59F00900F6CF38F8F7CFD1
:1024800039F8F5500E01CDADFED79A6F38C8F6FF7A
:1024900039C8F7FF0801372F01D002D00001ECD76F
:1024A00000011200EF5212E0EACFD0F8E9CFCFF8E6
:1024B000EF500E01CDADFED79A6FD0C8EAFFCFC85E
:1024C000E9FFE92AD8B4EA2A0001ECD71200080192
:1024D000346B356B3691346B34517F0872E336B10F
:1024E00034D0036A3451390FE96E000E0320EA6ECE
:1024F000640E3425396FF2CF3AF8F29E7F6A39C8FC
:102500007EFF819C819E81808050819C818E3ABF1C
:10251000F28EEF6E036A3451390FE96E000E03201C
:10252000EA6EEF502F0811E1036A3451390FE96E5A
:10253000000E0320EA6EEF6A368134C835F80A0EC1
:10254000D06F000190EC0CF0080136A138D0355165
:10255000345D036AB90FE96E000E0320EA6E640E63
:102560003425396FF2CF3AF8F29E7F6A39C87EFF80
:10257000819C819E81808050819C818E3ABFF28EA9
:10258000EF6E3551345D036AB90FE96E000E03201A
:10259000EA6EEF520AE03551345D036AB90FE96E15
:1025A000000E0320EA6EEF3C0AD03551345D036A19
:1025B000B90FE96E000E0320EA6EEF6A02D0342BE9
:1025C0008BD7A80EF66E090EF76E0C0E376F000152
:1025D00053DFEA6A390EE96E65DFB80EF66E090E52
:1025E000F76E0D0E0801376F000146DFEA6AB90E7B
:1025F000E96E58DF1200F2CF34F8F29E7F6A0A0EBD
:102600007E6E819C819E81808050819C818E08019C
:1026100034BFF28E0501D36FD33D01D002D0D35326
:1026200002E1780ED36F000112000601E66BF2CFD3
:10263000E7F6F29E7F6A320E7E6E819C819E8180DB
:102640008050819C818EE7BFF28EE66FE6510108D3
:1026500001E2E66B919BE6B1918B000157EF59F0D7
:102660000900F5520FE0F6CF35F8F7CF36F8F55000
:102670000E01CDADFED79A6F35C8F6FF36C8F7FF0D
:102680000001EED712000900F5520FE0F6CF35F841
:10269000F7CF36F8F5500E01CDA9FED79A6E35C8A2
:1026A000F6FF36C8F7FF0001EED71200016A026A92
:1026B000006A036A08016C5102E16B5118E0100EC8
:1026C0006D6FD89069376A37003603366C51035CFA
:1026D00002E16B51005C07E36B51005ED8A003067A
:1026E0006C51035ED880013602366D2FEAD70001A7
:1026F00012000801756B766B010E776FDA6AD96A82
:10270000080E7A6F6D0E796F080EEA6E710EE96E23
:102710007AC8E2FF79C8E1FF77C878F8D890E55029
:10272000EE02F3507523F4507623782FF7D775C84F
:10273000DEFF76C875F8766BD8B0762B792BD8B4D7
:102740007A2B772B77510508DFE100017AEF14F03F
:10275000020E08016E5F0CE3080EEA6E6E0EE96E63
:10276000EF5006E003D000D000D00000EF2EFBD7E2
:102770000001120008016D6B6A516D5D08E2FA0EEE
:10278000D06F000190EC0CF008016D2BF5D769C8F3
:10279000D0F8000190EC0CF008016D6B6C516D5D90
:1027A00007E2FA0E6E6F0001D3DF08016D2BF6D73A
:1027B0006BC86EF80001CCDF1200D8920801DF6B05
:1027C0000F0EDE6F420EDD6F400EDC6FE36BE26BCF
:1027D00058C8E1F857C8E0F80001EADC03C06CF81B
:1027E00002C06BF801C06AF800C069F8D89008010F
:1027F0006C336B336A3369330A0E695D5B6F000EAD
:102800006A595C6F000E6B595D6F000E6C595E6FFC
:10281000D8925EC8DFF85DC8DEF85CC8DDF85BC83A
:10282000DCF8E36BE26B030EE16FE80EE06F000192
:10283000BFDC01C060F800C05FF860C86AF85FC81C
:1028400069F808016C6BFA0E6B6F00012FDF01C095
:1028500064F860C86AF85FC869F808016C6BFA0E22
:102860006B6F000123DF00C065F80801D882080EF5
:10287000EA6E690EE96E5EC8DFF85DC8DEF85CC816
:10288000DDF85BC8DCF8E36BE26B030EE16FE80E8A
:10289000E06F00018DDC6AC862F869C861F862C83F
:1028A0006AF861C869F808016C6BFA0E6B6F000179
:1028B000FDDE01C063F862C86AF861C869F8080102
:1028C0006C6BFA0E6B6F0001F1DE00C066F8080158
:1028D0005AC86AF859C869F8706B6F6B5AC86EF8B5
:1028E00059C86DF8746B736B030E726FE80E716FDD
:1028F0000001FFD603C06CF802C06BF801C06AF893
:1029000000C069F8D8920801DF6B0F0EDE6F420E2F
:10291000DD6F400EDC6FE36BE26B58C8E1F857C81F
:10292000E0F8000145DC03C070F802C06FF801C098
:102930006EF800C06DF8D8926CC8DFF86BC8DEF88E
:102940006AC8DDF869C8DCF803C0E3F802C0E2F841
:1029500001C0E1F800C0E0F82BDC01C068F800C05D
:1029600067F8080168C86AF86751D8B4680767074C
:10297000696F695302E16A5319E065C869F864C870
:102980006AF866C86BF863C86CF80001F3DE8892D9
:10299000838265C869F864C86AF866C86BF863C85A
:1029A0006CF8E8DE88928392DCD7080100011200FF
:1029B000010E0501E66F0E01D251040000014CEC3E
:1029C0000DF0B00EF66E110EF76E14DD010E08015B
:1029D0005A6F020E5B6F000138EC10F00501E951EF
:1029E0000E0A000116E0090A33E0010A4BE0030A6F
:1029F00063E0010AD8B47AD0070AD8B491D0010AAA
:102A0000D8B4A8D0030AD8B4BFD0010AD8B4BFD074
:102A1000C4D0BE0EF66E110EF76E35DECC0EF66E1D
:102A2000110EF76E1DDEDA0EF66E110EF76EE2DC99
:102A3000050E0601E66FDC0E0801D06F000190EC78
:102A40000CF00601E62FF7D790B901D0FDD7B1D031
:102A5000E40EF66E110EF76E16DEEA0EF66E110E2D
:102A6000F76EC8DC020E0601E66F960E0801D06F05
:102A7000000190EC0CF00601E62FF7D790B901D0D9
:102A8000FDD797D0F60EF66E110EF76EFCDD020E36
:102A9000F66E120EF76EAEDC020E0601E66F960EB3
:102AA0000801D06F000190EC0CF00601E62FF7D77B
:102AB00090B901D0FDD77DD00E0EF66E120EF76ED6
:102AC000E2DD1A0EF66E120EF76E94DC020E0601AF
:102AD000E66F960E0801D06F000190EC0CF0060135
:102AE000E62FF7D790B901D0FDD763D0220EF66E4E
:102AF000120EF76EC8DD380EF66E120EF76E7ADC27
:102B0000020E0601E66F960E0801D06F000190ECF0
:102B10000CF00601E62FF7D790B901D0FDD749D0C8
:102B2000460EF66E120EF76EAEDD560EF66E120EF5
:102B3000F76E60DC020E0601E66F960E0801D06F9C
:102B4000000190EC0CF00601E62FF7D790B901D008
:102B5000FDD72FD0660EF66E120EF76E94DD7A0E4C
:102B6000F66E120EF76E46DC020E0601E66F960E4A
:102B70000801D06F000190EC0CF00601E62FF7D7AA
:102B800090B901D0FDD715D00601908D12D00F0E4F
:102B90000501E96F06010DD00001050E0601E66F83
:102BA000DC0E0801D06F000190EC0CF00601E62F5E
:102BB000F7D70501E907010EEA6EBC0EE96E0001C8
:102BC00071DC0601909900018BEF5AF0010E0501AE
:102BD000E66F640E0801D06F000190EC0CF0060166
:102BE0009099840EF66E120EF76E00014CDD9AEF8E
:102BF0005AF0F250006EF29E7F6A3C0E7E6E010E1D
:102C0000806E819C819E81840F01550E826EAA0E7A
:102C1000826E818281B2FED78194819C818E005028
:102C2000F212000112008E0E006E0601E651005EE7
:102C3000E7C602F0E8C601F0028E005209E0D89023
:102C4000025202E1015204E002320132002EF7D7B3
:102C5000E7AF05D0011E021E012AD8B4022A0001E6
:102C600046EF5CF00801D651016AD55D03E2D5C894
:102C700000F00CD0006A080ED76FD5370036D65159
:102C8000005CD8B0006E0136D72FF7D700011200D4
:102C9000200E0601E7A9300EE86FE6C600F000AE90
:102CA00008D0001E002A00C0E6F62D0EE86FE78F60
:102CB000E7810150E6C6D5F8640E0801D66F000121
:102CC000D1DF00C0E6F6300E01240601E96FE6C64A
:102CD000D5F80A0E0801D66F0001C4DF300E0024BB
:102CE0000601EB6F300E0124EA6FE8C600F0300EEB
:102CF000E95D04E0E783E7BFE78512D0E8C6E9F6BF
:102D0000200EE86F300EEA5D04E0E781E7BFE7835D
:102D100007D0D8A4E78104E1E9C6EAF6200EE96FFE
:102D2000E7B505D0E7B308D0E7B10BD00FD0E8C6C0
:102D300059F8000161EC10F0E9C659F8000161ECA6
:102D400010F0EAC659F8000161EC10F0EBC659F832
:102D5000000161EC10F078EF5CF008014151430391
:102D6000F3CF01F0F4CF00F04403F35000264251BA
:102D70004303F3500020026E00011200969C9786D8
:102D800097B6FED700B0979A00A0978A978897B811
:102D9000FED792CF01F0EEEF16F0978097B0FED7F6
:102DA000A00E08014A6F0001D0EC0DF046C848F8AB
:102DB0000801496B46C84AF80001D0EC0DF045C83F
:102DC0004AF8D0EC0DF0978297B2FED7A10E080119
:102DD0004A6F0001D0EC0DF0006AD0D701C047F86F
:102DE000978497B4FED7080147C801F0000112008C
:102DF0003AC842F839C841F80801446B0B0E436FDA
:102E00000001ABDF8C0E080101243B6F120E022083
:102E10003C6F3D6B3D510A081EE3036A3D51CB0FE9
:102E2000016E060E032201C03EF803C03FF83D517B
:102E30003B25406F000E3C21416F466F40C845F86E
:102E40000001ABDF3FC8EAFF3EC8E9FF01C0EFFF6A
:102E500008013D2BDFD70601D66B000112000801E7
:102E6000386B376B385314E13751630811E338C8B6
:102E70003AF837C839F80001BBDF0601CB3D03D073
:102E8000080106D006010801372BD8B4382BEAD741
:102E900037C801F038C802F000011200EACF3CF850
:102EA000E9CF3BF808013539F009376F3727E20FD2
:102EB000386F320F3A6F35510F0B382738273A27C2
:102EC000E90F396F3927392734390F0B39273A275A
:102ED00039373A373A1F3A3734510F0B3A273737D9
:102EE000070E366F0A0E39073A27FDE338073927F0
:102EF000FDE337073827FDE336073727FDE3080EE4
:102F0000EA6E360EE96E070E3B153B9DE926000E74
:102F1000EA22E9503A0804E1EA50080801E13B8D51
:102F2000EF50006E08E13BBD06D03BB90ED03BB779
:102F300002D0200E03D03B873B99300E0026005074
:102F40000E01CDADFED79A6F0801EE503BADE1D733
:102F5000000112000900F6CFD0F8F7CFD1F8F550F4
:102F60000E01CDA9FED79A6ED0C8F6FFD1C8F7FFE3
:102F70000801CF2F01D002D00001ECD700011200D0
:102F8000EF5212E0EACFD0F8E9CFCFF8EF500E01C0
:102F9000CDA9FED79A6ED0C8EAFFCFC8E9FFE92ACB
:102FA000D8B4EA2A0001ECD71200CF900501E76BF4
:102FB0000601909990A9FED70001120050DF02C0CF
:102FC000E7F601C0E6F65C0EF66E0A0EF76E060E28
:102FD0000801376F00013CEC12F0100EE96EE7C6F5
:102FE00035F8E6C634F85ADF650EF66E0A0EF76E4F
:102FF000030E0801376F00013CEC12F00601E96B8B
:10300000E86BE951E75DD8A0EBD004E1E651E85D5B
:10301000D8B0E6D0020EEB6FFA0E0801D06F0001B7
:1030200090EC0CF00601EB2FF7D78C8091B001D01B
:10303000D7D0E9C63AF8E8C639F80001D9DE6A0EF9
:10304000F66E0A0EF76E190E0801376F00013CECA0
:1030500012F0100EE96EE9C635F8E8C634F81EDF46
:10306000860EF66E0A0EF76E0A0E0801376F000123
:103070003CEC12F0060EEA6ECB0EE96E52EC12F04A
:103080000D0E0E01CDADFED79A6F0A0ECDADFED757
:103090009A6F960EF66E0A0EF76E090E0801CF6F44
:1030A000000158DF060EEA6ECB0EE96E69DF220ED4
:1030B0000E01CDA9FED79A6E0D0ECDA9FED79A6E40
:1030C000000173DF0E01D2510400020E0601EB6F06
:1030D000FA0E0801D06F000190EC0CF00601EB2F06
:1030E000F7D7010EEA6EBC0EE96E000152EC12F049
:1030F000060190A711D09097A40EF66E0A0EF76EF7
:10310000170E0801CF6F000125DF1A0E0E01CDA9A1
:10311000FED79A6E2DD00601BE0EF66E0A0EF76E21
:10312000050E0801CF6F000115DF060EEA6E990E3D
:10313000E96E26DF2D0E0E01CDA9FED79A6E060E82
:10314000EA6EAA0EE96E00011BDFC80EF66E0A0ECB
:10315000F76E050E0801CF6F0001FCDE030EEA6E6C
:103160008C0EE96E0DDF1A0E0E01CDA9FED79A6EF8
:10317000020E0601EB6FFA0E0801D06F000190EC11
:103180000CF00601EB2FF7D79099EA6B90B910D0AD
:10319000EA5123080DE3FA0E0801D06F000190EC0C
:1031A0000CF00601EA2B0E01D25104000601EED705
:1031B000010EEA6EBC0EE96E000152EC12F006013F
:1031C0009099D20EF66E0A0EF76E000130EC13F0F5
:1031D0000E01D25104000601E82BD8B4E92B11D717
:1031E000000192EF5DF0006A016A08013B51D8903E
:1031F0003CB10026003201323CB3002600320132DD
:103200003CB50026003201323CB7002600320132C4
:103210003CB90026003201323CBB002600320132AC
:103220003CBD0026003201323CBF00260032013294
:10323000000183EF19F00801396B376B0A0E386F04
:10324000366B3451351103E1000E016EBBD039519C
:10325000392B3425E96E000E3521EA6EEFCF3AF8AE
:103260003A512D080CE1010E376F3951392B3425B5
:10327000E96E000E3521EA6EEFCF3AF80CD03A51E4
:103280002B0809E13951392B3425E96E000E35211F
:10329000EA6EEFCF3AF83A512F08D8B08BD03A51B6
:1032A0003908D8A087D03A5130081EE13951342569
:1032B000E96E000E3521EA6EEF50780809E03951C9
:1032C0003425E96E000E3521EA6EEF5058080CE106
:1032D000100E386F392B3951392B3425E96E000E19
:1032E0003521EA6EEFCF3AF838510A081CE13A511D
:1032F0002F0818E23A51390815E30A0E3B6F36C819
:103300003CF8000170D7300E08013A5D0124366F99
:103310003951392B3425E96E000E3521EA6EEFCF95
:103320003AF8E5D747D03851100844E13A516008DF
:1033300006E23A517A0803E33A51DF0B01D03A51E1
:103340003A6F3A512F0803E23A51390806E23A51EE
:10335000400830E23A5146082DE33A512F080CE27A
:103360003A51390809E336393B6FF00E3B17300EFE
:103370003A5D3B25366F09D036393B6FF00E3B176F
:10338000410E3A5D0A0F3B25366F3951392B3425F2
:10339000E96E000E3521EA6EEFCF3AF83A51600837
:1033A00006E23A517A0803E33A51DF0B01D03A5171
:1033B0003A6FC7D7372D04D038510A0801E1366D6E
:1033C00036C801F000011200E4C6EAFFE3C6E9FFD7
:1033D0000801DCC8EFFFE92AD8B4EA2AEF6A06013F
:1033E000E32BD8B4E42B000112000900F5520CE0E5
:1033F000F6CF38F8F7CF39F8F5CFDCF8E5DF38C885
:10340000F6FF39C8F7FFF1D712000900F6CFD0F860
:10341000F7CFD1F8F5CFDCF8D7DFD0C8F6FFD1C8A9
:10342000F7FF0801CF2F01D002D00001EED7000135
:103430001200EF520FE0EACFD0F8E9CFCFF8EFCF8C
:10344000DCF8C2DFD0C8EAFFCFC8E9FFE92AD8B468
:10345000EA2AEFD71200200E0801D0A9300ED16F52
:10346000CFC800F000AE08D0001E002A00C0CFF880
:103470002D0ED16FD08FD0810150CFC8D5F8640EFA
:10348000D66F000132EC16F000C0CFF8300E0124E8
:103490000801D26FCFC8D5F80A0ED66F000132EC02
:1034A00016F0300E00240801D46F300E0124D36FC3
:1034B000D1C800F0300ED25D04E0D083D0BFD085FB
:1034C00012D0D1C8D2F8200ED16F300ED35D04E0F7
:1034D000D081D0BFD08307D0D8A4D08104E1D2C896
:1034E000D3F8200ED26FD0B505D0D0B307D0D0B16D
:1034F00009D00CD0D1C8DCF8000166DFD2C8DCF8F6
:10350000000162DFD3C8DCF800015EDFD4C8DCF85C
:1035100000015ADF42EF1CF0E9500801D46FD3518B
:10352000D66F1CE0D2C8DFF8D1C8DEF8D0C8DDF80D
:10353000CFC8DCF8E36BE26B200EE16F820EE06F28
:103540000001C7EC0EF003C0D2F802C0D1F801C0F0
:10355000D0F800C0CFF80801D62FE4D7D2C8DFF8E2
:10356000D1C8DEF8D0C8DDF8CFC8DCF80001B7EC70
:1035700010F003C0D2F802C0D1F801C0D0F800C0EA
:10358000CFF80801D2AF0DD0D407D48BCF1FD01FF6
:10359000D11FD21FCF2BD8B4D02BD8B4D12BD8B4B5
:1035A000D22B3B0EDB6F9A0EDA6FCA0ED96FD86B37
:1035B0000A0ED66FD351D8B4D42BD882080EEA6E37
:1035C000CF0EE96ED2C8DFF8D1C8DEF8D0C8DDF87A
:1035D000CFC8DCF8DBC8E3F8DAC8E2F8D9C8E1F80C
:1035E000D8C8E0F80001D8EC10F00150005213E107
:1035F0000801D329D65DD8A402D000010CD0D45143
:103600000DE00F0BD65D01E040E2D4BF3ED0D4BD4B
:1036100005D0200E34D0200E0801D417D4AB0ED024
:10362000D49BD351D8A4D4070050D46F2D0EDC6F97
:103630000001CADE0801D451006ED46BD351D65DAF
:103640000CE10050D46F2E0EDC6F0001BDDE0801CE
:10365000D451006E200ED417000E300ED4AB0FD014
:10366000D49BD351D8A4D4070050D46F2D0EDC6F57
:103670000001AADE0801D451006ED46B300E002682
:1036800000C0DCF80001A0DE0801D892DBC8DFF83A
:10369000DAC8DEF8D9C8DDF8D8C8DCF8E36BE26B2D
:1036A000E16B0A0EE06F0001D8EC10F003C0DBF80C
:1036B00002C0DAF801C0D9F800C0D8F80801D62F46
:1036C0007CD700015AEF1CF0D0C8D2F8CFC8D1F88F
:1036D000D2C8EAFF0801D1C8E9FFEF5206E0D12BBA
:1036E000D8B4D22B0001F4D70801CF51D15D006EC0
:1036F000D051D259036E00C001F0026E00011200D9
:10370000EACFD7F8E9CFD6F80801D039F009D26F5F
:10371000D227E20FD36F320FD56FD0510F0BD327C3
:10372000D327D527E90FD46FD427D427CF390F0B50
:10373000D427D527D437D537D51FD537CF510F0B41
:10374000D527D237070ED16F0A0ED407D527FDE350
:10375000D307D427FDE3D207D327FDE3D107D22730
:10376000FDE3080EEA6ED10EE96E070ED615D69D62
:10377000E926000EEA22E950D50804E1EA500808DB
:1037800001E1D68DEF50006E08E1D6BD06D0D6B966
:103790000ED0D6B702D0200E03D0D687D699300EE1
:1037A000002600500E01CDA9FED79A6E0801EE50FA
:1037B000D6ADE1D70001B7EF1CF0060191AB10D0F8
:1037C000080EE46FCA0EE36F730E0801DC6F000190
:1037D000FBDD690E0801DC6F0001F6DD0FD006018C
:1037E000080EE46FCA0EE36F6E0E0801DC6F000175
:1037F000EBDD6F0E0801DC6F0001E6DDF1EC0FF090
:10380000080E0601E46F340EE36F520EF66E110ED1
:10381000F76E040E0801CF6F0001F7DDE4C6EAFF82
:10382000E3C6E9FFEF6AEA6AB90EE96E02DE580EF6
:10383000F66E110EF76E030E0801CF6F0001E5DD85
:10384000E4C6EAFFE3C6E9FFEF6AEA6A210EE96E21
:10385000F0DDE4C6EAFFE3C6E9FFEF6AEA6A240E98
:10386000E96EE7DD5F0EF66E110EF76E070E0801CA
:10387000CF6F0001CADDE2C6CFF8180E0801D06F85
:103880000001E9D5680EF66E110EF76E090E0801FB
:10389000CF6F0001BADD890EE96EEEC5D2F8EDC535
:1038A000D1F8ECC5D0F8EBC5CFF8020E0801D36F04
:1038B000000132D6730EF66E110EF76E080E080177
:1038C000CF6F0001A2DDE4C6EAFFE3C6E9FFEF6ABD
:1038D000080EEA6ECA0EE96EACDD7D0EF66E110EB4
:1038E000F76E080E0801CF6F00018FDDE4C6EAFF16
:1038F000E3C6E9FFEF6A030EEA6EA70EE96E99DDF3
:10390000870EF66E110EF76E100E0801CF6F0001D4
:103910007CDDE4C6EAFFE3C6E9FFEF6AEA6A390E36
:10392000E96E87DD990EF66E110EF76E040E080132
:10393000CF6F00016ADD080E0801D06F340ECF6F23
:103940000001C2DE02C0CEF801C0CDF8A00EF66EB6
:10395000110EF76E0B0E0801CF6F0001AAEC17F0E5
:10396000100EE96ECEC8D0F8CDC8CFF8C9D60D0E6E
:103970000E01CDA9FED79A6ED25104000001D5ECFC
:1039800017F0010EEA6EBC0EE96E52EC12F0060161
:1039900090990E01D25104000C0E0801CF6FFA0E5F
:1039A000D06F000190EC0CF00801CF2FF8D7010E7A
:1039B000EA6EBC0EE96E000152EC12F0080EEA6EDF
:1039C000340EE96EC0EC17F00D0E0E01CDA9FED736
:1039D0009A6E0A0ECDA9FED79A6E030E0601E46F09
:1039E000A70EE36FE4C6EAFFE3C6E9FFEF6A080E3D
:1039F000EA6E340EE96E000152EC12F016EF2EF072
:103A000037C83DF836C83CF808013A5302E13B5349
:103A100023E039C8EAFF38C8E9FFEF521DE03DC88E
:103A200003F03C513C2BD8B43D2B3E6F03C03FF814
:103A300039C8EAFF3851382BD8B4392BE96EEFCFAB
:103A400040F803C0EAFF3EC8E9FF40C8EFFF3A5123
:103A5000D8B43B073A07D9D73A5302E13B530DE0BC
:103A60003DC8EAFF3C513C2BD8B43D2BE96EEF6AD0
:103A70003A51D8B43B073A07EFD736C801F037C8F8
:103A800002F000019FEF30F069C86CF868C86EF86A
:103A900067C86DF808016B5303E16A51000814E22E
:103AA0006EC8EAFF6DC8E9FF6C51EF5C05E16DC8B7
:103AB00001F06EC802F00BD06D2BD8B46E2B6A519A
:103AC000D8B46B076A07E7D7000E016E026E0001DB
:103AD0001200080169516B19800B6D6F69AF05D039
:103AE000681F691F682BD8B4692B6BAF05D06A1F9C
:103AF0006B1F6A2BD8B46B2B68516A03F3CF01F0AC
:103B0000F4CF00F06B03F350002669516A03F350C1
:103B10000020026E6DAF05D0011E021E012AD8B42E
:103B2000022A000112000801406B3F6B300E426F09
:103B3000310E436F320E446F330E456F340E466FB5
:103B4000350E476F360E486F370E496F380E4A6F85
:103B5000390E4B6F610E4C6F620E4D6F630E4E6FE0
:103B6000640E4F6F650E506F660E516F670E526F89
:103B7000680E536F690E546F6A0E556F6B0E566F59
:103B80006C0E576F6D0E586F6E0E596F6F0E5A6F29
:103B9000700E5B6F710E5C6F730E5D6F740E5E6FF7
:103BA000750E5F6F760E606F770E616F780E626FC5
:103BB000790E636F7A0E646F656B35C83AF834C856
:103BC00039F83AC8EAFF39C8E9FFEF50200804E1A4
:103BD000392BD8B43A2BF5D73AC803F039C8E9FFE6
:103BE00003C0EAFFEF502D0807E03AC8EAFF39C8E2
:103BF000E9FFEF502B0809E13AC8EAFF3951392BA8
:103C0000D8B43A2BE96EEF5001D02B0E416F38BF7C
:103C100008D0382D01D005D038BF05D03851240840
:103C200002E200D17CD0385346E0385110081DE143
:103C30003AC8EAFF39C8E9FFEF50300816E1010E33
:103C40003925E96E000E3A21EA6EEF50780809E056
:103C5000010E3925E96E000E3A21EA6EEF50580840
:103C600004E1020E3927000E3A23385108080BE10F
:103C70003AC8EAFF39C8E9FFEF50300804E1010E05
:103C80003927000E3A233851020814E13AC8EAFFF6
:103C900039C8E9FFEF5030080DE1010E3925E96E12
:103CA000000E3A21EA6EEF50620804E1020E392755
:103CB000000E3A2334D03AC8EAFF39C8E9FFEF5082
:103CC000300803E00A0E386F2AD0010E3925E96E5C
:103CD000000E3A21EA6EEF50780809E0010E39250E
:103CE000E96E000E3A21EA6EEF50580807E1100E17
:103CF000386F020E3927000E3A2311D0010E3925F4
:103D0000E96E000E3A21EA6EEF50620806E1020EFB
:103D1000386F3927000E3A2302D0080E386F3AC8A0
:103D20003CF839C83BF83AC8EAFF39C8E9FFEF5018
:103D3000300804E1392BD8B43A2BF5D73AC803F050
:103D400039C8E9FF03C0EAFFEFCF66F866514008C3
:103D500006E266515A0803E36651200901D0665114
:103D6000666F080E686F420E676F66C869F86B6B06
:103D700038C86AF86ABF6B07000186DE02C03EF8E9
:103D800001C03DF808013D5302E13E5345E0036A9E
:103D90003851006EE8BE0306666F03C067F840C87E
:103DA00069F83FC868F803C06BF86A6F000191DEDC
:103DB000420E08013D5D006E080E3E59036E005034
:103DC00001243F6F03500220406F392BD8B43A2BA7
:103DD0003AC8EAFF39C8E9FFEFCF66F866514008F4
:103DE00006E266515A0803E36651200901D0665184
:103DF000666F080E686F420E676F66C869F86B6B76
:103E000038C86AF86ABF6B0700013EDE02C03EF8A0
:103E100001C03DF8B7D7080139513B5D14E13A5173
:103E20003C5D11E108013651371109E037C8EAFF5E
:103E300036C8E9FF35C8ECFFED5234C8EFFF000E7D
:103E4000016E026E18D041512D0805E13F1F401F41
:103E50003F2BD8B4402B3651371109E037C8EAFF61
:103E600036C8E9FF3AC8ECFFED5239C8EFFF3FC84A
:103E700001F040C802F00001ABEF30F00801385308
:103E800002E139533EE035C8EAFF34C8E9FFEFCF1D
:103E90003AF837C8EAFF36C8E9FFEF503A5D17E055
:103EA00035C803F034C8E9FF03C0EAFFEFCF3AF8A2
:103EB00037C803F036C8E9FF03C0EAFFEF503A5DA8
:103EC00002E2FF0E01D0010E016E1DD009D035C8EF
:103ED000EAFF34C8E9FFEF5203E1000E016E13D090
:103EE00035C803F03451342BD8B4352B37C803F020
:103EF0003651362BD8B4372B3851D8B43907380758
:103F0000BED7000E016E000112003DC842F83CC849
:103F100041F80801446B2F0E436F0001ADEC16F021
:103F200002C03FF801C03EF808013F51110806E207
:103F3000FF0A03E13E518B0801E280D0406B405103
:103F40000F081FE3036A4051990F016E060E03220A
:103F500001C041F803C042F840513E25436F000EB6
:103F60003F21446F466F43C845F80001CDEC16F081
:103F700042C8EAFF41C8E9FF01C0EFFF0801402B3A
:103F8000DED70601A96B0801406B4051130824E3FA
:103F9000036A4051AA0F016E060E032201C041F8C8
:103FA00003C042F8100E3E25436F000E3F21446FC0
:103FB00040514327000E442344C846F843C845F8FF
:103FC0000001CDEC16F042C8EAFF41C8E9FF01C08C
:103FD000EFFF0801402BD9D70601BE6B0801406BEB
:103FE00040510A0828E3036A4051BF0F016E060ED4
:103FF000032201C041F803C042F8100E3E25436F72
:10400000000E3F21446F140E4327000E44234051FD
:104010004327000E442344C846F843C845F800012E
:10402000CDEC16F042C8EAFF41C8E9FF01C0EFFF3E
:104030000801402BD5D70601CA6B08010001120008
:1040400035C8EAFF080134C8E9FFEFCF38F837C8B0
:10405000EAFF36C8E9FFEF50385D17E135C803F0D5
:1040600034C8E9FF03C0EAFFEF5203E1000E016E1E
:1040700021D035C803F03451342BD8B4352B362B2E
:10408000D8B4372B0001DCD7080135C803F034C899
:10409000E9FF03C0EAFFEFCF38F837C803F036C8AE
:1040A000E9FF03C0EAFFEF50385D02E2FF0E01D0E6
:1040B000010E016E000180EF31F0EACF3CF8E9CF4C
:1040C0003BF808013539F009376F3727E20F386FB1
:1040D000320F3A6F35510F0B382738273A27E90F3F
:1040E000396F3927392734390F0B39273A273937B0
:1040F0003A373A1F3A3734510F0B3A273737070E02
:10410000366F0A0E39073A27FDE338073927FDE3F2
:1041100037073827FDE336073727FDE3080EEA6E39
:10412000360EE96E070E3B153B9DE926000EEA228E
:10413000E9503A0804E1EA50080801E13B8DEF50EC
:10414000006E08E13BBD06D03BB916D03BB702D0AC
:10415000200E03D03B873B99300E0026EACF35F87E
:10416000E9CF34F800C059F8000161EC10F035C80F
:10417000EAFF34C8E9FF0801EE503BADD9D7000192
:10418000120039C842F838C841F80801446B2F0EB4
:10419000436F0001ADEC16F002C03CF801C03BF8E3
:1041A00008013C51110806E2FF0A03E13B518B086C
:1041B00001E263D03A6B3A510F0819E33A513B25BB
:1041C0003D6F000E3C213E6F036A3A51990FE96E34
:1041D000060E0320EA6EEFCF42F83EC841F83DC814
:1041E00040F80001E0EC0DF008013A2BE4D73A6BFF
:1041F0003A5113081DE3100E3B253D6F000E3C2184
:104200003E6F3A513D27000E3E23036A3A51AA0FF2
:10421000E96E060E0320EA6EEFCF42F83EC841F881
:104220003DC840F80001E0EC0DF008013A2BE0D762
:104230003A6B3A510A0821E3100E3B253D6F000E00
:104240003C213E6F140E3D27000E3E233A513D2780
:10425000000E3E23036A3A51BF0FE96E060E03209B
:10426000EA6EEFCF42F83EC841F83DC840F8000181
:10427000E0EC0DF008013A2BDCD70001120038C841
:1042800042F837C841F80801446B0B0E436F000138
:10429000ADEC16F08C0E08010124396F120E0220CD
:1042A0003A6F3B6B3B510A0819E33B5139253C6F90
:1042B000000E3A213D6F036A3B51CB0FE96E060EAB
:1042C0000320EA6EEFCF42F83DC841F83CC840F801
:1042D0000001E0EC0DF008013B2BE4D700011200D7
:1042E0000801366B00012FEC17F001C036F834C816
:1042F00035F808013551365D11E3010E3525376F6C
:104300003A6B396F0001F8EC16F00801386B35C8CC
:1043100037F80001B4DF0801352BECD7000112009B
:10432000015034C8D5F8640E0801D66F000132EC94
:1043300016F000C034F80150300E08E1080135A332
:1043400010D035B70ED035B9200E04D008013597FE
:1043500035993581012601C059F8000161EC10F052
:10436000080134C8D5F80A0ED66F000132EC16F0F9
:1043700000C034F80150300E08E1080135B70BD009
:1043800035A109D035B9200E0001012601C059F828
:1043900061EC10F00801300E342734C859F80001E0
:1043A00061EC10F012000801396B386B395317E1DA
:1043B0003851640814E30E01D251040039C83DF8A5
:1043C00038C83CF80001A1DD0601993D03D0080181
:1043D00006D006010801382BD8B4392BE7D739C8E5
:1043E0003BF838C83AF83AC801F03BC802F000017F
:1043F0001200D9DF02C037F801C036F8060E0601F8
:10440000E46F990EE36F0801DC690001E4EC19F038
:104410002D0E0801DC6F0001E4EC19F02D0E0801EF
:10442000DC6F0001E4EC19F0060E0601E46FAA0E41
:10443000E36F960EF66E090EF76E0001F5EC19F0BB
:10444000060E0601E46FBF0EE36F9C0EF66E090EBA
:10445000F76E0001F5EC19F00801356B346B35513E
:10446000375D12E303E13451365D0EE335C839F8A8
:1044700034C838F8000185DE0E01D251040008016D
:10448000342BD8B4352BEBD736C801F037C802F03F
:10449000000112000801346B356B356B3551010892
:1044A0002DE335513425366F036A3551210FE96EFE
:1044B000000E0320EA6EEFCF37F8F250006EF29E46
:1044C0007F6A36C87EFF37C880FF819C819E8184C9
:1044D0000F01550E826EAA0E826E818281B2FED7C6
:1044E0008194819C818E0050F2120A0E0801D06FD7
:1044F000000190EC0CF00801352BD0D7020E346F80
:10450000356B355103082DE335513425366F036A79
:104510003551240FE96E000E0320EA6EEFCF37F815
:10452000F250006EF29E7F6A36C87EFF37C880FF69
:10453000819C819E81840F01550E826EAA0E826E2F
:10454000818281B2FED78194819C818E0050F212CB
:104550000A0E0801D06F000190EC0CF00801352B19
:10456000D0D7000106EF3AF0F250006EF29E7F6A5B
:104570000A0E7E6ED3C580FF819C819E81840F01CF
:10458000550E826EAA0E826E818281B2FED7819410
:10459000819C818E0050F2120001F7EF3AF0F25048
:1045A000006EF29E7F6A1E0E7E6E010E806E819CF2
:1045B000819E81840F01550E826EAA0E826E8182C9
:1045C00081B2FED78194819C818E0050F21200014D
:1045D0001200F250006EF29E7F6A1E0E7E6E020E78
:1045E000806E819C819E81840F01550E826EAA0E81
:1045F000826E818281B2FED78194819C818E00502F
:10460000F21200011200F250006EF29E7F6A1E0E3E
:104610007E6E030E806E819C819E81840F01550EFB
:10462000826EAA0E826E818281B2FED78194819CB5
:10463000818E0050F2120001120001503DC8D5F8E1
:10464000640E0801D66F000132EC16F000C03DF890
:104650000150300E08E108013EA310D03EB70ED045
:104660003EB9200E04D008013E973E993E810126B6
:1046700001C0DCF80001E4EC19F008013DC8D5F8F0
:104680000A0ED66F000132EC16F000C03DF8015062
:10469000300E08E108013EB70BD03EA109D03EB96B
:1046A000200E0001012601C0DCF8E4EC19F008013D
:1046B000300E3D273DC8DCF80001E4EC19F0120093
:1046C0000801356B140E346F376B366B376B366BF6
:1046D000375323E13651030820E3380E3625E96EBF
:1046E000080E3721EA6E365134253F6F3751352198
:1046F000406FF2CF41F8F29E40C87FFF3FC87EFF77
:10470000819C819E81808050819C818E41BFF28EF0
:10471000EF6E362BD8B4372BDBD7376B040E366FE2
:10472000380E3625E96E080E3721EA6EEF6A383DFD
:1047300007D0393D05D03A3D03D03B3D01D008D0EC
:10474000385307E1395305E13A5303E13B5301E1A3
:1047500033D00601E46B290EE36F38C83DF81B0E19
:1047600008013E6F000169DF2E0E0801DC6F0001B9
:10477000E4EC19F039C83DF81B0E08013E6F00014A
:104780005CDF2E0E0801DC6F0001E4EC19F03AC882
:104790003DF81B0E08013E6F00014FDF2E0E080191
:1047A000DC6F0001E4EC19F03BC83DF81B0E08017A
:1047B0003E6F000142DF0801000149EF3DF0F25079
:1047C000006EF29E7F6A280E7E6E010E806E819CC6
:1047D000819E81840F01550E826EAA0E826E8182A7
:1047E00081B2FED78194819C818E0050F21200012B
:1047F0001200F250006EF29E7F6A280E7E6E806A72
:10480000819C819E81840F01550E826EAA0E826E5C
:10481000818281B2FED78194819C818E0050F212F8
:10482000000112000801556B546B55531BE15451A4
:10483000080818E3340E5425016E080E5521036E46
:10484000A70E5425E96E030E5521EA6EEFCF59F8F5
:1048500003C0EAFF01C0E9FF59C8EFFF542BD8B4E9
:10486000552BE3D73D6B556B546B555321E1545198
:104870000F081EE3440E5425016E080E5521036EE9
:10488000090E5425596F000E55215A6FA70E592550
:10489000E96E030E5A21EA6EEFCF5BF803C0EAFF20
:1048A00001C0E9FF5BC8EFFF542BD8B4552BDDD70F
:1048B000536B00014CEC0DF0010E08015A6F5B6F59
:1048C000000138EC10F0E20EF66E100EF76EFAEC06
:1048D00011F0010E08015A6F020E5B6F000138ECF7
:1048E00010F0EA0EF66E100EF76EFAEC11F0F60EFE
:1048F000F66E100EF76E090E0801CF6F0001AAECDC
:1049000017F0030EEA6E930EE96EC0EC17F0220E5C
:104910000E01CDA9FED79A6E0D0ECDA9FED79A6EC7
:104920000001D5EC17F00E01D2510400040E08016D
:10493000576FFA0ED06F000190EC0CF00801572F62
:10494000F8D7010EEA6EBC0EE96E000152EC12F0CF
:10495000030EEA6EA70EE96EC0EC17F01A0E0E01F8
:10496000CDA9FED79A6E020E0801576FFA0ED06FCE
:10497000000190EC0CF00801572FF8D70601909930
:104980000801566B060190B914D00801565123084E
:10499000D8B002D006010DD0FA0ED06F000190EC15
:1049A0000CF00801562B0E01D25104000801EAD781
:1049B000060100014CEC0DF0010E08015A6F5B6F0F
:1049C000000138EC10F0080EEA6E340EE96EA5EC2A
:1049D00010F0010E08015A6F020E5B6F000138ECF7
:1049E00010F0080EEA6E440EE96EA5EC10F0080E09
:1049F0000801586F2D0E576F5A6B640E596F0001E6
:104A0000DDEC13F00C0E0801586F400E576F5A6B17
:104A1000640E596F0001DDEC13F0100E0801576FA2
:104A2000FA0ED06F000190EC0CF00801572FF8D768
:104A30000E01D2510400010EEA6EBC0EE96E0001B7
:104A400052EC12F006019099020E0801576FFA0E0F
:104A5000D06F000190EC0CF00801572FF8D700013F
:104A60004CEF40F0040EF66E110EF76E090E0801C1
:104A7000CF6F0001AAEC17F0030EEA6E930EE96EF9
:104A8000C0EC17F0220E0E01CDA9FED79A6E0D0EC6
:104A9000CDA9FED79A6E0001D5EC17F00E01D251C8
:104AA0000400040E0801356FFA0ED06F000190EC7F
:104AB0000CF00801352FF8D7010EEA6EBC0EE96E36
:104AC000000152EC12F0060191AB42D0EA6A210ECD
:104AD000E96E0001C0EC17F0EA6A240EE96EC0EC42
:104AE00017F0160EF66E110EF76E030E0801CF6F5B
:104AF0000001AAEC17F0060EEA6ED80EE96EC0ECC3
:104B000017F01B0EF66E110EF76E030E0801CF6F35
:104B10000001AAEC17F0280EF66E110EF76E43ECAA
:104B200013F0200EF66E110EF76E030E0801CF6F14
:104B30000001AAEC17F0060EEA6E950EE96EC0ECC5
:104B400017F01A0E0E01CDA9FED79A6E41D00601BC
:104B5000EA6A210EE96E0001C0EC17F0EA6A240E41
:104B6000E96EC0EC17F02E0EF66E110EF76E030E06
:104B70000801CF6F0001AAEC17F0060EEA6ED80EFE
:104B8000E96EC0EC17F0330EF66E110EF76E030EE1
:104B90000801CF6F0001AAEC17F0400EF66E110E5F
:104BA000F76E43EC13F0380EF66E110EF76E030E2F
:104BB0000801CF6F0001AAEC17F0060EEA6E950E01
:104BC000E96EC0EC17F01A0E0E01CDA9FED79A6E51
:104BD000020E0801356FFA0ED06F000190EC0CF058
:104BE0000801352FF8D7060190990801346B0601AA
:104BF00090B914D0080134512308D8B002D006016E
:104C00000DD0FA0ED06F000190EC0CF00801342B9F
:104C10000E01D25104000801EAD70601010EEA6E26
:104C2000BC0EE96E000152EC12F006019099420EA2
:104C3000F66E110EF76E000130EC13F0010E050157
:104C4000E56F220EE46F000183EF40F00801366B40
:104C5000386B376B366B36512708D8A0BDD034C8B7
:104C6000E9FF35C8EAFFEFCF39F8036A3651CA0FBA
:104C7000E96E030E0320EA6EEF50395D25E1010E67
:104C80003425E96E000E3521EA6EEFCF39F8036A5C
:104C90003651F20FE96E030E0320EA6EEF50395DD4
:104CA00013E1020E3425E96E000E3521EA6EEFCFD6
:104CB00039F8036A36511A0FE96E040E0320EA6EC2
:104CC000EF50395D01E188D0036A3651CA0FE96EB1
:104CD000030E0320EA6EEF3C13D0036A3651F20F45
:104CE000E96E030E0320EA6EEF3C0AD0036A3651E8
:104CF0001A0FE96E040E0320EA6EEF3C01D01BD0C0
:104D0000036A3651CA0FE96E030E0320EA6EEF52B2
:104D100061E1036A3651F20FE96E030E0320EA6E79
:104D2000EF5258E1036A36511A0FE96E040E032060
:104D3000EA6EEF524FE1036A3651CA0F016E030E5D
:104D4000032234C8E9FF35C8EAFFEFCF3BF803C0C0
:104D5000EAFF01C0E9FF3BC8EFFF036A3651F20FDB
:104D6000016E030E0322010E3425E96E000E35217B
:104D7000EA6EEFCF3BF803C0EAFF01C0E9FF3BC892
:104D8000EFFF036A36511A0F016E040E0322020E62
:104D90003425E96E000E3521EA6EEFCF3BF803C0F3
:104DA000EAFF01C0E9FF3BC8EFFF036A3651420F3B
:104DB000016E040E0322030E3425E96E000E352128
:104DC000EA6EEFCF3BF803C0EAFF01C0E9FF3BC842
:104DD000EFFF02D0362B3FD7366B3651270861E301
:104DE0003651040DF350700F376F170E386FD8B06F
:104DF000382B036A3651CA0FE96E030E0320EA6EA0
:104E0000EFCF42F838C841F837C840F80001E0EC6D
:104E10000DF0010E08013725396F000E38213A6F69
:104E2000036A3651F20FE96E030E0320EA6EEFCFEC
:104E300042F83AC841F839C840F80001E0EC0DF0FA
:104E4000020E08013725396F000E38213A6F036AC8
:104E500036511A0FE96E040E0320EA6EEFCF42F8C6
:104E60003AC841F839C840F80001E0EC0DF0030EF3
:104E700008013725396F000E38213A6F036A365121
:104E8000420FE96E040E0320EA6EEFCF42F83AC8F3
:104E900041F839C840F80001E0EC0DF00801362B6C
:104EA0009CD7000129EF42F00801366B386B376B55
:104EB000366B36512708D8A0A9D034C8E9FF35C8C9
:104EC000EAFFEFCF39F8036A3651E20FE96E040EBC
:104ED0000320EA6EEF50395D25E1010E3425E96EBD
:104EE000000E3521EA6EEFCF39F8036A36510A0F0A
:104EF000E96E050E0320EA6EEF50395D13E1020EF4
:104F00003425E96E000E3521EA6EEFCF39F8036AD9
:104F10003651320FE96E050E0320EA6EEF50395D0F
:104F200001E174D0036A3651E20FE96E040E0320EA
:104F3000EA6EEF3C13D0036A36510A0FE96E050E94
:104F40000320EA6EEF3C0AD0036A3651320FE96E55
:104F5000050E0320EA6EEF3C01D01BD0036A3651E8
:104F6000E20FE96E040E0320EA6EEF524DE1036A90
:104F700036510A0FE96E050E0320EA6EEF5244E146
:104F8000036A3651320FE96E050E0320EA6EEF52C6
:104F90003BE1036A3651E20F016E040E032234C86E
:104FA000E9FF35C8EAFFEFCF3BF803C0EAFF01C0D5
:104FB000E9FF3BC8EFFF036A36510A0F016E050E89
:104FC0000322010E3425E96E000E3521EA6EEFCF83
:104FD0003BF803C0EAFF01C0E9FF3BC8EFFF036AEB
:104FE0003651320F016E050E0322020E3425E96E92
:104FF000000E3521EA6EEFCF3BF803C0EAFF01C097
:10500000E9FF3BC8EFFF02D0362B53D7366B365142
:10501000270847E33651030DF3CF37F8190E386FE1
:10502000036A3651E20FE96E040E0320EA6EEFCFF9
:1050300042F838C841F837C840F80001E0EC0DF0FC
:10504000010E08013725396F000E38213A6F036AC7
:1050500036510A0FE96E050E0320EA6EEFCF42F8D3
:105060003AC841F839C840F80001E0EC0DF0020EF2
:1050700008013725396F000E38213A6F036A36511F
:10508000320FE96E050E0320EA6EEFCF42F83AC800
:1050900041F839C840F80001E0EC0DF00801362B6A
:1050A000B6D700013AEF43F00801366B386B376B27
:1050B000366B36512708D8A0A9D034C8E9FF35C8C7
:1050C000EAFFEFCF39F8036A36515A0FE96E050E41
:1050D0000320EA6EEF50395D25E1010E3425E96EBB
:1050E000000E3521EA6EEFCF39F8036A3651820F90
:1050F000E96E050E0320EA6EEF50395D13E1020EF2
:105100003425E96E000E3521EA6EEFCF39F8036AD7
:105110003651AA0FE96E050E0320EA6EEF50395D95
:1051200001E174D0036A36515A0FE96E050E03206F
:10513000EA6EEF3C13D0036A3651820FE96E050E1A
:105140000320EA6EEF3C0AD0036A3651AA0FE96EDB
:10515000050E0320EA6EEF3C01D01BD0036A3651E6
:105160005A0FE96E050E0320EA6EEF524DE1036A15
:105170003651820FE96E050E0320EA6EEF5244E1CC
:10518000036A3651AA0FE96E050E0320EA6EEF524C
:105190003BE1036A36515A0F016E050E032234C8F3
:1051A000E9FF35C8EAFFEFCF3BF803C0EAFF01C0D3
:1051B000E9FF3BC8EFFF036A3651820F016E050E0F
:1051C0000322010E3425E96E000E3521EA6EEFCF81
:1051D0003BF803C0EAFF01C0E9FF3BC8EFFF036AE9
:1051E0003651AA0F016E050E0322020E3425E96E18
:1051F000000E3521EA6EEFCF3BF803C0EAFF01C095
:10520000E9FF3BC8EFFF02D0362B53D7366B365140
:1052100027084AE33651030DF350C80F376F190EB4
:10522000386FD8B0382B036A36515A0FE96E050E25
:105230000320EA6EEFCF42F838C841F837C840F88B
:105240000001E0EC0DF0010E08013725396F000E6A
:1052500038213A6F036A3651820FE96E050E03203A
:10526000EA6EEFCF42F83AC841F839C840F8000179
:10527000E0EC0DF0020E08013725396F000E3821E1
:105280003A6F036A3651AA0FE96E050E0320EA6EE3
:10529000EFCF42F83AC841F839C840F80001E0ECD5
:1052A0000DF00801362BB3D700013FEF44F00801A1
:1052B000376B396B386B036A36516A0F016E040E17
:1052C000032234C8E9FF35C8EAFFEFCF3CF803C03A
:1052D000EAFF01C0E9FF3CC8EFFF036A3651920FB5
:1052E000016E040E0322010E3425E96E000E3521F5
:1052F000EA6EEFCF3CF803C0EAFF01C0E9FF3CC80B
:10530000EFFF036A3651BA0F016E040E0322020E3C
:105310003425E96E000E3521EA6EEFCF3CF803C06C
:10532000EAFF01C0E9FF3CC8EFFF376B37512708A0
:105330004AE33751030DF350380F386F180E396FA9
:10534000D8B0392B036A37516A0FE96E040E032077
:10535000EA6EEFCF42F839C841F838C840F800018A
:10536000E0EC0DF0010E080138253A6F000E3921EE
:105370003B6F036A3751920FE96E040E0320EA6E09
:10538000EFCF42F83BC841F83AC840F80001E0ECE2
:105390000DF0020E080138253A6F000E39213B6FDF
:1053A000036A3751BA0FE96E040E0320EA6EEFCF9D
:1053B00042F83BC841F83AC840F80001E0EC0DF073
:1053C0000801372BB3D700014FEF45F0F250006EC4
:1053D000F29E7F6A320E7E6E010E806E819C819EEF
:1053E00081840F01550E826EAA0E826E818281B277
:1053F000FED78194819C818E0050F2120001120030
:10540000F250006EF29E7F6A320E7E6E806A819C40
:10541000819E81840F01550E826EAA0E826E81825A
:1054200081B2FED78194819C818E0050F2120001DE
:1054300012000801376B375127085DE33751030D20
:10544000F350380F386F180E396FD8B0392B036A04
:1054500037516A0F016E040E032201C03AF803C0EF
:105460003BF839C846F838C845F80001CDEC16F0CD
:105470003BC8EAFF3AC8E9FF01C0EFFF036A080131
:105480003751920F016E040E032201C03AF803C097
:105490003BF8010E38253C6F000E39213D6F466FF9
:1054A0003CC845F80001CDEC16F03BC8EAFF3AC80D
:1054B000E9FF01C0EFFF036A08013751BA0F016E1F
:1054C000040E032201C03AF803C03BF8020E38254F
:1054D0003C6F000E39213D6F466F3CC845F8000116
:1054E000CDEC16F03BC8EAFF3AC8E9FF01C0EFFF78
:1054F0000801372BA0D70001B5EF2AF00801366B61
:105500003651270830E33651030DF350380F346F0E
:10551000180E356FD8B0352B35C841F834C840F86F
:1055200042690001E0EC0DF0010E08013425376FEF
:10553000000E3521386F416F37C840F842690001CD
:10554000E0EC0DF0020E08013425376F000E352116
:10555000386F416F37C840F842690001E0EC0DF048
:105560000801362BCDD7000164D781EF47F0080141
:10557000396B395127087AE33951040DF350700F14
:10558000376F170E386FD8B0382B036A3951CA0FEE
:10559000016E030E032201C03AF803C03BF838C87D
:1055A00046F837C845F80001CDEC16F03BC8EAFFD5
:1055B0003AC8E9FF01C0EFFF036A08013951F20F51
:1055C000016E030E032201C03AF803C03BF8010E3E
:1055D00037253C6F000E38213D6F466F3CC845F8BB
:1055E0000001CDEC16F03BC8EAFF3AC8E9FF01C064
:1055F000EFFF036A080139511A0F016E040E0322EE
:1056000001C03AF803C03BF8020E37253C6F000E8C
:1056100038213D6F466F3CC845F80001CDEC16F0CF
:105620003BC8EAFF3AC8E9FF01C0EFFF036A08017F
:105630003951420F016E040E032201C03AF803C033
:105640003BF8030E37253C6F000E38213D6F466F47
:105650003CC845F80001CDEC16F03BC8EAFF3AC85B
:10566000E9FF01C0EFFF0801392B83D700017EEF6E
:105670002BF00801366B365127083EE33651040DF6
:10568000F350700F346F170E356FD8B0352B35C807
:1056900041F834C840F842690001E0EC0DF0010E19
:1056A00008013425376F000E3521386F416F37C838
:1056B00040F842690001E0EC0DF0020E08013425CB
:1056C000376F000E3521386F416F37C840F8426997
:1056D0000001E0EC0DF0030E08013425376F000ED9
:1056E0003521386F416F37C840F842690001E0EC5E
:1056F0000DF00801362BBFD7000139D708EF48F06D
:105700000801396B395127085AE33951030DF3CF9A
:1057100037F8190E386F036A3951E20F016E040E23
:10572000032201C03AF803C03BF838C846F837C82E
:1057300045F80001CDEC16F03BC8EAFF3AC8E9FF96
:1057400001C0EFFF036A080139510A0F016E050E0F
:10575000032201C03AF803C03BF8010E37253C6F25
:10576000000E38213D6F466F3CC845F80001CDEC76
:1057700016F03BC8EAFF3AC8E9FF01C0EFFF036A31
:1057800008013951320F016E050E032201C03AF8AB
:1057900003C03BF8020E37253C6F000E38213D6FE9
:1057A000466F3CC845F80001CDEC16F03BC8EAFF57
:1057B0003AC8E9FF01C0EFFF0801392BA3D7000168
:1057C00016EF2CF00801366B365127082DE33651C1
:1057D000030DF3CF34F8190E356F35C841F834C8CE
:1057E00040F842690001E0EC0DF0010E080134259B
:1057F000376F000E3521386F416F37C840F8426966
:105800000001E0EC0DF0020E08013425376F000EA8
:105810003521386F416F37C840F842690001E0EC2C
:105820000DF00801362BD0D700016AD788EF48F079
:105830000801396B395127085DE33951030DF350E5
:10584000C80F376F190E386FD8B0382B036A39512B
:105850005A0F016E050E032201C03AF803C03BF84F
:1058600038C846F837C845F80001CDEC16F03BC8FB
:10587000EAFF3AC8E9FF01C0EFFF036A08013951A6
:10588000820F016E050E032201C03AF803C03BF8F7
:10589000010E37253C6F000E38213D6F466F3CC826
:1058A00045F80001CDEC16F03BC8EAFF3AC8E9FF25
:1058B00001C0EFFF036A08013951AA0F016E050EFE
:1058C000032201C03AF803C03BF8020E37253C6FB3
:1058D000000E38213D6F466F3CC845F80001CDEC05
:1058E00016F03BC8EAFF3AC8E9FF01C0EFFF080124
:1058F000392BA0D70001B4EF2CF00801366B3651DC
:10590000270830E33651030DF350C80F346F190EDA
:10591000356FD8B0352B35C841F834C840F84269E6
:105920000001E0EC0DF0010E08013425376F000E88
:105930003521386F416F37C840F842690001E0EC0B
:105940000DF0020E08013425376F000E3521386F37
:10595000416F37C840F842690001E0EC0DF00801E2
:10596000362BCDD7000164D78AEF48F0F250006E95
:10597000F29E7F6A3C0E7E6E806A819C819E81844D
:105980000F01550E826EAA0E826E818281B2FED701
:105990008194819C818E0050F212000119EF49F030
:1059A0000601E76BE66B0101C5512B08D8A4BAD0FC
:1059B000C6514308D8A4B6D0C7515308D8A4B2D012
:1059C000C8515108D8A4AED0C9513A08D8A4AAD019
:1059D000CA512008D8A4A6D0CBC1E8F6CCC1E9F6BC
:1059E0000601EA6B060E0801356FE80E346F000100
:1059F0001BEC19F001C0D7F60601EE6BD7C6EDF629
:105A000090A382D0ED51630805E1EE5303E1880EC7
:105A1000E26F0CD0D890ED35026EEE35036E025079
:105A20008E0F016EFF0E032201C0E2F6EE5312E16B
:105A3000ED5107080FE3060EE46FD80EE36FE20E98
:105A4000F66E0A0EF76E0001F5EC19F0010E060174
:105A5000926F59D0EE5303E1ED51070814E2EE5373
:105A600012E1ED510E080FE3060EE46FD80EE36F5E
:105A7000EC0EF66E0A0EF76E0001F5EC19F0020E50
:105A80000601926F40D0EE5303E1ED510E0814E28F
:105A9000EE5312E1ED5116080FE3060EE46FD80E37
:105AA000E36FF20EF66E0A0EF76E0001F5EC19F0D8
:105AB000030E0601926F27D0EE5303E1ED51160855
:105AC00014E2EE5312E1ED511F080FE3060EE46FEE
:105AD000D80EE36FFA0EF66E0A0EF76E0001F5ECC3
:105AE00019F0040E0601926F0ED0060EE46FD80E68
:105AF000E36F040EF66E0B0EF76E0001F5EC19F075
:105B0000060E0601926F0DD0060EE46FD80EE36FFD
:105B10000A0EF66E0B0EF76E0001F5EC19F0060199
:105B2000926B0101C7512B083FE1C85143083CE18A
:105B3000C951520839E1CA51450836E1CB514708ED
:105B400033E1CC513A0830E1CD5120082DE1D0515C
:105B5000310803E0D05135080EE1100EF66E0B0E41
:105B6000F76E000130EC13F0060190830501D66B4F
:105B7000D56B19D0010106019093060EE46FD80E83
:105B8000E36F1E0EF66E0B0EF76E0001F5EC19F0CA
:105B9000070E0601926F280EF66E0B0EF76E0001CF
:105BA00030EC13F005010101BE51430840E1BF5143
:105BB0004F083DE1C0514E083AE1C1514E0837E16E
:105BC000C251450834E1C351430831E1C45154087E
:105BD0002EE1C55120082BE1C6514F0828E1C751DD
:105BE0004B0825E1100E08015A6F010E5B6F000192
:105BF00038EC10F07E0E0801596F000161EC10F0D6
:105C0000100E08015A6F020E5B6F000138EC10F0A5
:105C10007F0E0801596F000161EC10F0380EF66E2E
:105C20000B0EF76E30EC13F0DDEF1BF00101BE51EF
:105C3000530818E1BF51450815E1C0514E0812E163
:105C4000C15144080FE1C25120080CE1C3514F0873
:105C500009E1C4514B0806E1010E0501E56F610E33
:105C6000E46F0101BE51430824E1BF51610821E105
:105C7000C0516C081EE1C1516C081BE1C2512008E3
:105C800018E1C351520815E1C451650812E1C5512C
:105C900061080FE1C65164080CE1C751790809E1B8
:105CA0000501D72BD751020803E289928492FF00A5
:105CB0000101C7512B081EE1C85143081BE1C9511E
:105CC000500818E1CA51490815E1CB514E0812E1BC
:105CD000CE5152080FE1D25159080CE14E0EF66E2A
:105CE0000B0EF76E000130EC13F08A9085900601E0
:105CF000908F0101BE512B08D8A478EF4AF0BF5114
:105D00004308D8A478EF4AF0C0514D08D8A478EFE2
:105D10004AF0C1515408D8A478EF4AF0C2513A0869
:105D2000D8A478EF4AF0660EF66E0B0EF76E0001FF
:105D300030EC13F04CEC0DF0010E08015A6F5B6F64
:105D4000000138EC10F07A0EF66E0B0EF76EFAECDE
:105D500011F00601E76BE66BE75337E1E6511308F4
:105D600034E3930EE625016E030EE721036E090E60
:105D70000601E6250801366F000E0601E72108013D
:105D8000376FBC0E3625E96E010E3721EA6EEFCF74
:105D900038F803C0EAFF01C0E9FF38C8EFFF930EEF
:105DA0000601E625E96E030EE721EA6EEF502208B0
:105DB00008E1930EE625E96E030EE721EA6EEF6A2D
:105DC00004D0E62BD8B4E72BC7D7030193512B0897
:105DD00040E1945135083DE1955134083AE196513E
:105DE000390837E1300E966F0601E76BE66BE75333
:105DF0002FE1E65113082CE3930EE625016E030E06
:105E0000E721036E030E0601E6250801366F000E3A
:105E10000601E7210801376F930E3625E96E030E60
:105E20003721EA6EEFCF38F803C0EAFF01C0E9FF7F
:105E300038C8EFFF930E0601E625E96E030EE72151
:105E4000EA6EEF5201E104D0E62BD8B4E72BCFD7AE
:105E50000301935135083AE19451340837E1300E8B
:105E6000946F0601E76BE66BE7532FE1E6511308E9
:105E70002CE3930EE625016E030EE721036E010E5F
:105E80000601E6250801366F000E0601E72108012C
:105E9000376F930E3625E96E030E3721EA6EEFCF8A
:105EA00038F803C0EAFF01C0E9FF38C8EFFF930EDE
:105EB0000601E625E96E030EE721EA6EEF5201E1E5
:105EC00004D0E62BD8B4E72BCFD70301010E08018D
:105ED0005A6F020E5B6F000138EC10F08C0EF66EFC
:105EE0000B0EF76EFAEC11F0030EEA6E930EE96EEC
:105EF000A5EC10F0030EEA6E930EE96E52EC12F070
:105F00000D0E0E01CDADFED79A6F0A0ECDADFED7A8
:105F10009A6FD25104000601E76B030EE66FE75358
:105F200056E1E651FD0853E3BC0EE625E96E010E8D
:105F3000E721EA6EEF500A0846E1F06BEF6BF05391
:105F400041E1EF5195083EE3F60EEF25016E020E9A
:105F5000F021036E01C034F80801356F010E06010F
:105F6000E625016E000EE721036E0150EF250801C2
:105F7000366F03500601F0210801376FBC0E36253D
:105F8000E96E010E3721EA6EEFCF38F835C8EAFF27
:105F900034C8E9FF38C8EFFFF60E0601EF25E96EB9
:105FA000020EF021EA6EEF500D0808E1F60EEF2523
:105FB000E96E020EF021EA6EEF6A04D0EF2BD8B43E
:105FC000F02BBDD704D0E62BD8B4E72BA8D70E0111
:105FD000D25104000201F6513008D8A4FFD0F75185
:105FE0003008D8A4FBD00601F16BF36BF26B020E04
:105FF000F76F020E0801D06FF60ECF6F000164EC50
:106000001BF002C003F00150035205E101500601EC
:10601000F75D3FE20001036A0601F151F60F016EE0
:10602000020E0322080103C035F8036A0601F75186
:10603000F60FE96E020E0320EA6EEFCF36F8080184
:1060400035C8EAFF01C0E9FF36C8EFFF0601F12BB2
:10605000F72B036AF151F60F016E020E03220801BD
:1060600003C035F8036A0601F751F60FE96E020E18
:106070000320EA6EEFCF36F8080135C8EAFF01C009
:10608000E9FF36C8EFFF0601F12BF72B020EF727C9
:10609000B0D7036AF151F60FE96E020E0320EA6EE3
:1060A000300EEF6E010EF125036AF60FE96E020E57
:1060B0000320EA6EEF6A900EF66E0B0EF76E1B0E63
:1060C0000801376F00013CEC12F0020EEA6EF60E8A
:1060D000E96E52EC12F00A0E0E01CDADFED79A6FAA
:1060E0000601F86B020E0801D06FF60ECF6F0001AB
:1060F00064EC1BF002C003F00150035205E10150B3
:106100000601F85D38E20001D8900601F835036A0F
:10611000F60F016E020E032201C034F8080103C01D
:1061200035F8060E376FF40E366F03C039F801C02C
:1061300038F83B6B020E3A6F000100EF1DF0060EBF
:106140000801356FF40E346F376B366B100E386FF5
:10615000000193EF1DF002C0F3F601C0F2F6036AEE
:106160000601F851F60FE96E020E0320EA6EF2C640
:10617000EFFFF82BB7D7020EEA6EF60EE96E0001BC
:1061800052EC12F04CEC0DF0010E08015A6F5B6FEF
:10619000000138EC10F0B00EF66E0B0EF76EFAEC54
:1061A00011F0010E08015A6F020E5B6F000138EC0E
:1061B00010F0020EEA6EF60EE96EA5EC10F0040E79
:1061C0000801346FFA0ED06F000190EC0CF008015A
:1061D000342FF8D70E01D25104000201F6512308E2
:1061E000D8A424D12150F75DD8A420D12250F85D45
:1061F000D8A41CD1F9512008D8B418D1FD512008D9
:10620000D8A414D1030101512008D8B402D002014E
:106210000DD1020EEA6EF90EE96E000152EC12F099
:106220000801356B240E346F020E376FF90E366F8E
:10623000396B040E386F00013EEC1FF00152D8A4F8
:10624000F4D0FEC2F9F6FFC2FAF600C3FBF606016F
:10625000FC6B060E0801356FF90E346F00011BEC64
:1062600019F0036A0150E8BE03060501D86F03C0A8
:10627000D9F5D9C53DF8D8C53CF8000185EC1FF02B
:106280000601E76BE66BE7532FE1E65106082CE3C6
:106290008C0EE625016E030EE721036E0C0E06013F
:1062A000E6250801366F000E0601E7210801376F69
:1062B000F60E3625E96E020E3721EA6EEFCF38F87A
:1062C00003C0EAFF01C0E9FF38C8EFFF8C0E0601EA
:1062D000E625E96E030EE721EA6EEF5201E104D0F4
